{
  "_format": "hh-sol-artifact-1",
  "contractName": "LinkedInPortal",
  "sourceName": "contracts/LinkedInPortal.sol",
  "abi": [
    {
      "inputs": [],
      "stateMutability": "nonpayable",
      "type": "constructor"
    },
    {
      "anonymous": false,
      "inputs": [
        {
          "indexed": true,
          "internalType": "address",
          "name": "from",
          "type": "address"
        },
        {
          "indexed": false,
          "internalType": "uint256",
          "name": "timestamp",
          "type": "uint256"
        },
        {
          "indexed": false,
          "internalType": "string",
          "name": "name",
          "type": "string"
        },
        {
          "indexed": false,
          "internalType": "string",
          "name": "url",
          "type": "string"
        }
      ],
      "name": "NewProfile",
      "type": "event"
    },
    {
      "inputs": [],
      "name": "getAllProfiles",
      "outputs": [
        {
          "components": [
            {
              "internalType": "address",
              "name": "poster",
              "type": "address"
            },
            {
              "internalType": "string",
              "name": "name",
              "type": "string"
            },
            {
              "internalType": "string",
              "name": "url",
              "type": "string"
            },
            {
              "internalType": "uint256",
              "name": "timestamp",
              "type": "uint256"
            }
          ],
          "internalType": "struct LinkedInPortal.Profile[]",
          "name": "",
          "type": "tuple[]"
        }
      ],
      "stateMutability": "view",
      "type": "function"
    },
    {
      "inputs": [],
      "name": "getTotalProfiles",
      "outputs": [
        {
          "internalType": "uint256",
          "name": "",
          "type": "uint256"
        }
      ],
      "stateMutability": "view",
      "type": "function"
    },
    {
      "inputs": [
        {
          "internalType": "string",
          "name": "_name",
          "type": "string"
        },
        {
          "internalType": "string",
          "name": "_url",
          "type": "string"
        }
      ],
      "name": "postProfile",
      "outputs": [],
      "stateMutability": "nonpayable",
      "type": "function"
    }
  ],
  "bytecode": "0x60806040523480156200001157600080fd5b506200005d6040518060400160405280601e81526020017f4c696e6b6564496e20506f7274616c20536d61727420436f6e747261637400008152506200006360201b6200046a1760201c565b620001f7565b62000103816040516024016200007a919062000170565b6040516020818303038152906040527f41304fac000000000000000000000000000000000000000000000000000000007bffffffffffffffffffffffffffffffffffffffffffffffffffffffff19166020820180517bffffffffffffffffffffffffffffffffffffffffffffffffffffffff83818316178352505050506200010660201b60201c565b50565b60008151905060006a636f6e736f6c652e6c6f679050602083016000808483855afa5050505050565b60006200013c8262000194565b6200014881856200019f565b93506200015a818560208601620001b0565b6200016581620001e6565b840191505092915050565b600060208201905081810360008301526200018c81846200012f565b905092915050565b600081519050919050565b600082825260208201905092915050565b60005b83811015620001d0578082015181840152602081019050620001b3565b83811115620001e0576000848401525b50505050565b6000601f19601f8301169050919050565b610d3980620002076000396000f3fe608060405234801561001057600080fd5b50600436106100415760003560e01c80630b1fe78414610046578063bab17ce914610064578063fc09403714610082575b600080fd5b61004e61009e565b60405161005b919061097f565b60405180910390f35b61006c610281565b6040516100799190610a38565b60405180910390f35b61009c60048036038101906100979190610772565b6102cc565b005b60606001805480602002602001604051908101604052809291908181526020016000905b8282101561027857838290600052602060002090600402016040518060800160405290816000820160009054906101000a900473ffffffffffffffffffffffffffffffffffffffff1673ffffffffffffffffffffffffffffffffffffffff1673ffffffffffffffffffffffffffffffffffffffff16815260200160018201805461014b90610c33565b80601f016020809104026020016040519081016040528092919081815260200182805461017790610c33565b80156101c45780601f10610199576101008083540402835291602001916101c4565b820191906000526020600020905b8154815290600101906020018083116101a757829003601f168201915b505050505081526020016002820180546101dd90610c33565b80601f016020809104026020016040519081016040528092919081815260200182805461020990610c33565b80156102565780601f1061022b57610100808354040283529160200191610256565b820191906000526020600020905b81548152906001019060200180831161023957829003601f168201915b50505050508152602001600382015481525050815260200190600101906100c2565b50505050905090565b60006102c46040518060400160405280601a81526020017f5765206861766520256420746f74616c2050726f66696c657321000000000000815250600054610503565b600054905090565b60016000808282546102de9190610b5f565b925050819055506103256040518060400160405280600a81526020017f257320706f737465643a00000000000000000000000000000000000000000000815250338461059f565b600160405180608001604052803373ffffffffffffffffffffffffffffffffffffffff16815260200184815260200183815260200142815250908060018154018082558091505060019003906000526020600020906004020160009091909190915060008201518160000160006101000a81548173ffffffffffffffffffffffffffffffffffffffff021916908373ffffffffffffffffffffffffffffffffffffffff16021790555060208201518160010190805190602001906103ea929190610667565b506040820151816002019080519060200190610407929190610667565b506060820151816003015550503373ffffffffffffffffffffffffffffffffffffffff167f1a6830b2116032804bf51ae00c83b55662c9a92bb25d701567043f4dc687b84742848460405161045e93929190610a53565b60405180910390a25050565b6105008160405160240161047e91906109a1565b6040516020818303038152906040527f41304fac000000000000000000000000000000000000000000000000000000007bffffffffffffffffffffffffffffffffffffffffffffffffffffffff19166020820180517bffffffffffffffffffffffffffffffffffffffffffffffffffffffff838183161783525050505061063e565b50565b61059b8282604051602401610519929190610a08565b6040516020818303038152906040527f9710a9d0000000000000000000000000000000000000000000000000000000007bffffffffffffffffffffffffffffffffffffffffffffffffffffffff19166020820180517bffffffffffffffffffffffffffffffffffffffffffffffffffffffff838183161783525050505061063e565b5050565b6106398383836040516024016105b7939291906109c3565b6040516020818303038152906040527fe0e9ad4f000000000000000000000000000000000000000000000000000000007bffffffffffffffffffffffffffffffffffffffffffffffffffffffff19166020820180517bffffffffffffffffffffffffffffffffffffffffffffffffffffffff838183161783525050505061063e565b505050565b60008151905060006a636f6e736f6c652e6c6f679050602083016000808483855afa5050505050565b82805461067390610c33565b90600052602060002090601f01602090048101928261069557600085556106dc565b82601f106106ae57805160ff19168380011785556106dc565b828001600101855582156106dc579182015b828111156106db5782518255916020019190600101906106c0565b5b5090506106e991906106ed565b5090565b5b808211156107065760008160009055506001016106ee565b5090565b600061071d61071884610ac9565b610a98565b90508281526020810184848401111561073557600080fd5b610740848285610bf1565b509392505050565b600082601f83011261075957600080fd5b813561076984826020860161070a565b91505092915050565b6000806040838503121561078557600080fd5b600083013567ffffffffffffffff81111561079f57600080fd5b6107ab85828601610748565b925050602083013567ffffffffffffffff8111156107c857600080fd5b6107d485828601610748565b9150509250929050565b60006107ea83836108f7565b905092915050565b6107fb81610bb5565b82525050565b61080a81610bb5565b82525050565b600061081b82610b09565b6108258185610b2c565b93508360208202850161083785610af9565b8060005b85811015610873578484038952815161085485826107de565b945061085f83610b1f565b925060208a0199505060018101905061083b565b50829750879550505050505092915050565b600061089082610b14565b61089a8185610b3d565b93506108aa818560208601610c00565b6108b381610cf2565b840191505092915050565b60006108c982610b14565b6108d38185610b4e565b93506108e3818560208601610c00565b6108ec81610cf2565b840191505092915050565b600060808301600083015161090f60008601826107f2565b50602083015184820360208601526109278282610885565b915050604083015184820360408601526109418282610885565b91505060608301516109566060860182610961565b508091505092915050565b61096a81610be7565b82525050565b61097981610be7565b82525050565b600060208201905081810360008301526109998184610810565b905092915050565b600060208201905081810360008301526109bb81846108be565b905092915050565b600060608201905081810360008301526109dd81866108be565b90506109ec6020830185610801565b81810360408301526109fe81846108be565b9050949350505050565b60006040820190508181036000830152610a2281856108be565b9050610a316020830184610970565b9392505050565b6000602082019050610a4d6000830184610970565b92915050565b6000606082019050610a686000830186610970565b8181036020830152610a7a81856108be565b90508181036040830152610a8e81846108be565b9050949350505050565b6000604051905081810181811067ffffffffffffffff82111715610abf57610abe610cc3565b5b8060405250919050565b600067ffffffffffffffff821115610ae457610ae3610cc3565b5b601f19601f8301169050602081019050919050565b6000819050602082019050919050565b600081519050919050565b600081519050919050565b6000602082019050919050565b600082825260208201905092915050565b600082825260208201905092915050565b600082825260208201905092915050565b6000610b6a82610be7565b9150610b7583610be7565b9250827fffffffffffffffffffffffffffffffffffffffffffffffffffffffffffffffff03821115610baa57610ba9610c65565b5b828201905092915050565b6000610bc082610bc7565b9050919050565b600073ffffffffffffffffffffffffffffffffffffffff82169050919050565b6000819050919050565b82818337600083830152505050565b60005b83811015610c1e578082015181840152602081019050610c03565b83811115610c2d576000848401525b50505050565b60006002820490506001821680610c4b57607f821691505b60208210811415610c5f57610c5e610c94565b5b50919050565b7f4e487b7100000000000000000000000000000000000000000000000000000000600052601160045260246000fd5b7f4e487b7100000000000000000000000000000000000000000000000000000000600052602260045260246000fd5b7f4e487b7100000000000000000000000000000000000000000000000000000000600052604160045260246000fd5b6000601f19601f830116905091905056fea264697066735822122040676caaf22606d0654eddbb622193239ee82389229037a27abd40a65df8a8e364736f6c63430008000033",
  "linkReferences": {},
  "deployedLinkReferences": {}
}