{
  "_format": "hh-sol-artifact-1",
  "contractName": "LinkedInPortal",
  "sourceName": "contracts/LinkedInPortal.sol",
  "abi": [
    {
      "inputs": [],
      "stateMutability": "payable",
      "type": "constructor"
    },
    {
      "anonymous": false,
      "inputs": [
        {
          "indexed": true,
          "internalType": "address",
          "name": "from",
          "type": "address"
        },
        {
          "indexed": false,
          "internalType": "uint256",
          "name": "timestamp",
          "type": "uint256"
        },
        {
          "indexed": false,
          "internalType": "string",
          "name": "name",
          "type": "string"
        },
        {
          "indexed": false,
          "internalType": "string",
          "name": "url",
          "type": "string"
        }
      ],
      "name": "NewProfile",
      "type": "event"
    },
    {
      "inputs": [],
      "name": "getAllProfiles",
      "outputs": [
        {
          "components": [
            {
              "internalType": "address",
              "name": "poster",
              "type": "address"
            },
            {
              "internalType": "string",
              "name": "name",
              "type": "string"
            },
            {
              "internalType": "string",
              "name": "url",
              "type": "string"
            },
            {
              "internalType": "uint256",
              "name": "timestamp",
              "type": "uint256"
            }
          ],
          "internalType": "struct LinkedInPortal.Profile[]",
          "name": "",
          "type": "tuple[]"
        }
      ],
      "stateMutability": "view",
      "type": "function"
    },
    {
      "inputs": [],
      "name": "getTotalProfiles",
      "outputs": [
        {
          "internalType": "uint256",
          "name": "",
          "type": "uint256"
        }
      ],
      "stateMutability": "view",
      "type": "function"
    },
    {
      "inputs": [
        {
          "internalType": "string",
          "name": "_name",
          "type": "string"
        },
        {
          "internalType": "string",
          "name": "_url",
          "type": "string"
        }
      ],
      "name": "postProfile",
      "outputs": [],
      "stateMutability": "nonpayable",
      "type": "function"
    }
  ],
  "bytecode": "0x60806040526200004f6040518060400160405280601e81526020017f4c696e6b6564496e20506f7274616c20536d61727420436f6e747261637400008152506200005560201b620005661760201c565b620001e9565b620000f5816040516024016200006c919062000162565b6040516020818303038152906040527f41304fac000000000000000000000000000000000000000000000000000000007bffffffffffffffffffffffffffffffffffffffffffffffffffffffff19166020820180517bffffffffffffffffffffffffffffffffffffffffffffffffffffffff8381831617835250505050620000f860201b60201c565b50565b60008151905060006a636f6e736f6c652e6c6f679050602083016000808483855afa5050505050565b60006200012e8262000186565b6200013a818562000191565b93506200014c818560208601620001a2565b6200015781620001d8565b840191505092915050565b600060208201905081810360008301526200017e818462000121565b905092915050565b600081519050919050565b600082825260208201905092915050565b60005b83811015620001c2578082015181840152602081019050620001a5565b83811115620001d2576000848401525b50505050565b6000601f19601f8301169050919050565b610f7b80620001f96000396000f3fe608060405234801561001057600080fd5b50600436106100415760003560e01c80630b1fe78414610046578063bab17ce914610064578063fc09403714610082575b600080fd5b61004e61009e565b60405161005b9190610b76565b60405180910390f35b61006c610281565b6040516100799190610c6f565b60405180910390f35b61009c6004803603810190610097919061086e565b6102cc565b005b60606001805480602002602001604051908101604052809291908181526020016000905b8282101561027857838290600052602060002090600402016040518060800160405290816000820160009054906101000a900473ffffffffffffffffffffffffffffffffffffffff1673ffffffffffffffffffffffffffffffffffffffff1673ffffffffffffffffffffffffffffffffffffffff16815260200160018201805461014b90610e75565b80601f016020809104026020016040519081016040528092919081815260200182805461017790610e75565b80156101c45780601f10610199576101008083540402835291602001916101c4565b820191906000526020600020905b8154815290600101906020018083116101a757829003601f168201915b505050505081526020016002820180546101dd90610e75565b80601f016020809104026020016040519081016040528092919081815260200182805461020990610e75565b80156102565780601f1061022b57610100808354040283529160200191610256565b820191906000526020600020905b81548152906001019060200180831161023957829003601f168201915b50505050508152602001600382015481525050815260200190600101906100c2565b50505050905090565b60006102c46040518060400160405280601a81526020017f5765206861766520256420746f74616c2050726f66696c6573210000000000008152506000546105ff565b600054905090565b60016000808282546102de9190610da1565b925050819055506103256040518060400160405280600a81526020017f257320706f737465643a00000000000000000000000000000000000000000000815250338461069b565b600160405180608001604052803373ffffffffffffffffffffffffffffffffffffffff16815260200184815260200183815260200142815250908060018154018082558091505060019003906000526020600020906004020160009091909190915060008201518160000160006101000a81548173ffffffffffffffffffffffffffffffffffffffff021916908373ffffffffffffffffffffffffffffffffffffffff16021790555060208201518160010190805190602001906103ea929190610763565b506040820151816002019080519060200190610407929190610763565b506060820151816003015550503373ffffffffffffffffffffffffffffffffffffffff167f1a6830b2116032804bf51ae00c83b55662c9a92bb25d701567043f4dc687b84742848460405161045e93929190610c8a565b60405180910390a26000652d79883d20009050478111156104b4576040517f08c379a00000000000000000000000000000000000000000000000000000000081526004016104ab90610c2f565b60405180910390fd5b60003373ffffffffffffffffffffffffffffffffffffffff16826040516104da90610b61565b60006040518083038185875af1925050503d8060008114610517576040519150601f19603f3d011682016040523d82523d6000602084013e61051c565b606091505b5050905080610560576040517f08c379a000000000000000000000000000000000000000000000000000000000815260040161055790610c4f565b60405180910390fd5b50505050565b6105fc8160405160240161057a9190610b98565b6040516020818303038152906040527f41304fac000000000000000000000000000000000000000000000000000000007bffffffffffffffffffffffffffffffffffffffffffffffffffffffff19166020820180517bffffffffffffffffffffffffffffffffffffffffffffffffffffffff838183161783525050505061073a565b50565b6106978282604051602401610615929190610bff565b6040516020818303038152906040527f9710a9d0000000000000000000000000000000000000000000000000000000007bffffffffffffffffffffffffffffffffffffffffffffffffffffffff19166020820180517bffffffffffffffffffffffffffffffffffffffffffffffffffffffff838183161783525050505061073a565b5050565b6107358383836040516024016106b393929190610bba565b6040516020818303038152906040527fe0e9ad4f000000000000000000000000000000000000000000000000000000007bffffffffffffffffffffffffffffffffffffffffffffffffffffffff19166020820180517bffffffffffffffffffffffffffffffffffffffffffffffffffffffff838183161783525050505061073a565b505050565b60008151905060006a636f6e736f6c652e6c6f679050602083016000808483855afa5050505050565b82805461076f90610e75565b90600052602060002090601f01602090048101928261079157600085556107d8565b82601f106107aa57805160ff19168380011785556107d8565b828001600101855582156107d8579182015b828111156107d75782518255916020019190600101906107bc565b5b5090506107e591906107e9565b5090565b5b808211156108025760008160009055506001016107ea565b5090565b600061081961081484610d00565b610ccf565b90508281526020810184848401111561083157600080fd5b61083c848285610e33565b509392505050565b600082601f83011261085557600080fd5b8135610865848260208601610806565b91505092915050565b6000806040838503121561088157600080fd5b600083013567ffffffffffffffff81111561089b57600080fd5b6108a785828601610844565b925050602083013567ffffffffffffffff8111156108c457600080fd5b6108d085828601610844565b9150509250929050565b60006108e68383610ad9565b905092915050565b6108f781610df7565b82525050565b61090681610df7565b82525050565b600061091782610d40565b6109218185610d63565b93508360208202850161093385610d30565b8060005b8581101561096f578484038952815161095085826108da565b945061095b83610d56565b925060208a01995050600181019050610937565b50829750879550505050505092915050565b600061098c82610d4b565b6109968185610d7f565b93506109a6818560208601610e42565b6109af81610f34565b840191505092915050565b60006109c582610d4b565b6109cf8185610d90565b93506109df818560208601610e42565b6109e881610f34565b840191505092915050565b6000610a00603483610d90565b91507f547279696e6720746f207769746864726177206d6f7265206d6f6e657920746860008301527f616e2074686520636f6e7472616374206861732e0000000000000000000000006020830152604082019050919050565b6000610a66602783610d90565b91507f4661696c656420746f207769746864726177206d6f6e65792066726f6d20636f60008301527f6e74726163742e000000000000000000000000000000000000000000000000006020830152604082019050919050565b6000610acc600083610d74565b9150600082019050919050565b6000608083016000830151610af160008601826108ee565b5060208301518482036020860152610b098282610981565b91505060408301518482036040860152610b238282610981565b9150506060830151610b386060860182610b43565b508091505092915050565b610b4c81610e29565b82525050565b610b5b81610e29565b82525050565b6000610b6c82610abf565b9150819050919050565b60006020820190508181036000830152610b90818461090c565b905092915050565b60006020820190508181036000830152610bb281846109ba565b905092915050565b60006060820190508181036000830152610bd481866109ba565b9050610be360208301856108fd565b8181036040830152610bf581846109ba565b9050949350505050565b60006040820190508181036000830152610c1981856109ba565b9050610c286020830184610b52565b9392505050565b60006020820190508181036000830152610c48816109f3565b9050919050565b60006020820190508181036000830152610c6881610a59565b9050919050565b6000602082019050610c846000830184610b52565b92915050565b6000606082019050610c9f6000830186610b52565b8181036020830152610cb181856109ba565b90508181036040830152610cc581846109ba565b9050949350505050565b6000604051905081810181811067ffffffffffffffff82111715610cf657610cf5610f05565b5b8060405250919050565b600067ffffffffffffffff821115610d1b57610d1a610f05565b5b601f19601f8301169050602081019050919050565b6000819050602082019050919050565b600081519050919050565b600081519050919050565b6000602082019050919050565b600082825260208201905092915050565b600081905092915050565b600082825260208201905092915050565b600082825260208201905092915050565b6000610dac82610e29565b9150610db783610e29565b9250827fffffffffffffffffffffffffffffffffffffffffffffffffffffffffffffffff03821115610dec57610deb610ea7565b5b828201905092915050565b6000610e0282610e09565b9050919050565b600073ffffffffffffffffffffffffffffffffffffffff82169050919050565b6000819050919050565b82818337600083830152505050565b60005b83811015610e60578082015181840152602081019050610e45565b83811115610e6f576000848401525b50505050565b60006002820490506001821680610e8d57607f821691505b60208210811415610ea157610ea0610ed6565b5b50919050565b7f4e487b7100000000000000000000000000000000000000000000000000000000600052601160045260246000fd5b7f4e487b7100000000000000000000000000000000000000000000000000000000600052602260045260246000fd5b7f4e487b7100000000000000000000000000000000000000000000000000000000600052604160045260246000fd5b6000601f19601f830116905091905056fea2646970667358221220744c398fa2ef2064995041158f5693f6a519d9f39197d4686206d217df67e47764736f6c63430008000033",
  "linkReferences": {},
  "deployedLinkReferences": {}
}